:020000040800F2
:100000000000022099050008690300086B0300083E
:100010006D0300086F030008710300080000000072
:100020000000000000000000000000007303000852
:10003000750300080000000077030008790300083A
:10004000E9050008E9050008E9050008E9050008D8
:10005000E9050008E9050008E9050008E9050008C8
:10006000E9050008E9050008E9050008E9050008B8
:10007000E9050008E9050008E9050008E9050008A8
:10008000E9050008E9050008E9050008E905000898
:10009000E9050008E9050008E9050008E905000888
:1000A000E9050008E9050008E9050008E905000878
:1000B000E9050008E9050008E9050008E905000868
:1000C000E9050008E9050008E9050008E905000858
:1000D000E9050008E905000831050008E905000800
:1000E000E9050008E9050008E9050008E905000838
:1000F000E9050008E9050008E9050008E905000828
:10010000E9050008E9050008E9050008E905000817
:10011000E9050008E9050008E9050008E905000807
:10012000E9050008E9050008E9050008E9050008F7
:10013000E90500080000000000000000E9050008D3
:10014000E9050008E9050008E9050008E9050008D7
:10015000E9050008E9050008E9050008E9050008C7
:10016000E9050008E9050008E9050008E9050008B7
:10017000E9050008E9050008E9050008000000009D
:1001800000000000E9050008000000000000000079
:10019000E90500080000000000000000E905000873
:1001A000000000000000000000000000E905000859
:1001B000E9050008E9050008E9050008E905000867
:0401C000E905000845
:1001D00010B5054C237833B9044B13B10448AFF381
:1001E00000800123237010BD6C000020000000007F
:1001F0000013000808B5034B1BB103490348AFF3D4
:10020000008008BD000000007000002000130008FE
:1002100001F0FF01102A2BDB10F0070F08D010F8B7
:10022000013B013A8B422DD010F0070F42B3F6D1BB
:10023000F0B441EA012141EA014122F007047FF0D4
:1002400000070023F0E80256083C85EA010586EA2B
:10025000010685FA47F5A3FA87F586FA47F6A5FA67
:1002600087F68EB9EED1F0BC01F0FF0102F0070273
:1002700032B110F8013B013A83EA010313B1F8D11E
:100280000020704701387047002D06BF35460338FF
:10029000073815F0010F07D1013015F4807F02BF38
:1002A000013015F4C03F0130F0BC0138704700BF89
:1002B000034A1168034B1B780B441360704700BF5F
:1002C000E00000200000002010B504462422002198
:1002D00000F011FB0123A360204610BD03685A1CE7
:1002E000026003441974142A09D0036842689342D7
:1002F00014BF00230123C3600023836070470023E1
:100300000360F2E703464268511C41600244107CDE
:10031000142909D05A6819688A4214BF00220122A0
:100320009A600022DA60704700225A60F2E7806823
:100330007047C0687047000000B587B007494FF4A8
:10034000964000F055F8064800F094FB054B1B68FA
:100350005A68142101A800F0AFF9F7E70024F4006F
:1003600018130008080000207047FEE7FEE7FEE7CC
:10037000FEE770477047704708B5FFF799FF08BD63
:1003800008B503460B4A126842B10A4A1068034492
:100390006A46934206D8074A136008BD054A0649D3
:1003A0001160F2E700F022F90C2303604FF0FF30F8
:1003B000F3E700BF88000020E80000204FF0FF3086
:1003C00070474FF400534B60002070470120704786
:1003D00000207047054BD3F8882042F47002C3F820
:1003E00088204FF000629A60704700BF00ED00E087
:1003F0002DE9F0418AB080460F46284D6846FFF748
:1004000063FF2C466E460FCE0FC40FCE0FC4336869
:1004100023606846FFF758FF24356C460FCC0FC5A4
:100420000FCC0FC523682B601D4B1A6B42F00102E5
:100430001A631A6C42F400321A64A3F560531A6806
:1004400022F0F0021A601A6842F0A0021A601A6ADA
:1004500022F47F421A621A6A42F4EE421A6297FB51
:10046000F8F7A3F5DE339F60DA6842F4005242F0F9
:100470000C02DA60DA6842F0A002DA60094A5368D6
:1004800043F040035360084B1868002302221946CA
:10049000806800F09DFB0AB0BDE8F081900000206C
:1004A0000038024000E100E00800002008B50548DF
:1004B000FFF73DFF08B1002008BD0248FFF722FF0B
:1004C000FAE700BF9000002010B504460748FFF788
:1004D00030FF28B1064AD36843F08003D36010BDD3
:1004E00021460248FFF7FAFEF4E700BFB4000020FF
:1004F0000044004038B515460024AC4206DAFFF748
:10050000D5FF18B10134FFF7DFFFF6E7204638BD0D
:1005100070B51646002305E04D1C0878FFF7D4FFA0
:10052000234629465C1CB342F6DB304670BD000012
:1005300008B5164B1B6813F0200F05D1134B1B6831
:1005400013F0800F0CD108BD1148FFF7F2FE002810
:10055000F9D10E4B5968C9B20D48FFF7BFFEF2E75B
:100560000C48FFF7E4FE50B1084AD36823F080033B
:10057000D360064A136823F080031360E3E705485D
:10058000FFF7C0FE014B5860F3E700BF0044004096
:1005900090000020B4000020DFF834D0002103E0F8
:1005A0000C4B5B58435004310B480C4B42189A4299
:1005B000F6D30B4A02E0002342F8043B094B9A426F
:1005C000F9D3FFF707FF00F067F9FFF7B5FE7047B3
:1005D000000002208C130008000000206C000020A6
:1005E0006C000020E8000020FEE70000014B1868C6
:1005F000704700BF08000020012A2DE9F04780461F
:10060000894617461C4604DC4FF000094846BDE801
:10061000F08718B183690BB900F098F8234B9C421E
:100620000FD1D8F80440013F4E466568B5B9214660
:10063000404600F031FA80B14E45E5D000233370DA
:10064000E4E71B4B9C4202D1D8F80840EBE7194B7A
:100650009C4208BFD8F80C40E5E76568D4F800A0D4
:10066000BD4228BF3D462A460A215046FFF7D0FD2D
:10067000636868B10130A0EB0A055B1BC4E90003A5
:100680002A465146304600F02BF900237355BDE74A
:100690005B1B636023682B44304623602A46514627
:1006A00000F01EF97F1B2E44BFD1C7E7401300089E
:1006B000601300082013000813460A46014602484A
:1006C0000068FFF799BF00BF08000020002310B5A5
:1006D0000446C0E90033836081814366C281C0E97A
:1006E00004338361194608225C3000F004F9054B9D
:1006F0006362054BA362054BE362054B24622363EF
:1007000010BD00BF2D0D00084F0D0008870D00081B
:10071000AB0D0008014900F0A1B800BF851000082A
:1007200070B54A1E682555430E4605F1740100F068
:10073000EBF8044640B10021C0E900160C30A0607F
:1007400005F1680200F0D7F8204670BD836910B546
:10075000044633BBC0E912330365124B124A1B68CF
:100760008262984204BF0123836100F01FF8606039
:10077000204600F01BF8A060204600F017F8002289
:10078000E06004216068FFF7A1FF01220921A06851
:10079000FFF79CFF02221221E068FFF797FF012379
:1007A000A36110BD8013000815070008F8B51B4BA6
:1007B0001E68B369074613B93046FFF7C7FF4836CE
:1007C000D6E90134013B03D5336833B13668F7E726
:1007D000B4F90C506DB16834F4E704213846FFF7E2
:1007E0009FFF30600028F1D10C233B600446204677
:1007F000F8BD0B4B6566C4E90055A560C4E9033537
:10080000C4E905550822294604F15C0000F073F89C
:10081000C4E90D55C4E91255E9E700BF801300088B
:100820000100FFFF2DE9F041884600F14804002651
:1008300014B93046BDE8F081D4E90175013F01D516
:100840002468F5E7AB89012B06D9B5F90E300133E1
:1008500002D02846C04706436835EFE72DE9F84344
:100860008046894600F14804002614B93046BDE8A8
:10087000F883D4E90175013F01D52468F5E7AB8918
:10088000012B07D9B5F90E30013303D02946404674
:10089000C84706436835EEE770B50D4E0D4CA41BF6
:1008A000A4100025A54209D10B4E0C4C00F028FDE8
:1008B000A41BA4100025A54205D170BD56F8253013
:1008C00098470135EEE756F8253098470135F2E7AD
:1008D0008413000884130008841300088813000898
:1008E00010B5431E0A44914200D110BD11F8014BCE
:1008F00003F8014FF7E702440346934200D17047E3
:1009000003F8011BF9E7000070B5CD1C25F00305C5
:1009100008350C2D38BF0C25002D064601DBA942F9
:1009200003D90C233360002070BD00F065FC214A20
:100930001468214691B9204C23681BB9304600F059
:1009400037F920602946304600F032F9431C24D1A3
:100950000C233360304600F050FCE4E70B685B1B6F
:1009600018D40B2B0FD90B60CD50CC18304600F0AB
:1009700044FC04F10B00231D20F00700C31AD3D060
:100980005A42E250D0E78C424B6816BF6360136056
:100990000C46EBE70C464968CCE7C41C24F0030482
:1009A000A04205D0211A304600F002F90130CFD024
:1009B0002560DBE7D8000020DC00002070B50E4683
:1009C000054618B183690BB9FFF7C0FEAB69AC6887
:1009D00013B92846FFF7BAFE234B9C4217D16C6827
:1009E000A3891B071DD52369DBB1013EA36816F857
:1009F000011F013BA360E9B9002B2EDA22460A2130
:100A0000284600F0D7F9013011D00A2011E0174B29
:100A10009C4201D1AC68E3E7154B9C4208BFEC68EF
:100A2000DEE72146284600F029FA0028DDD04FF005
:100A3000FF3070BD002B04DAA2699A4206DC0A2955
:100A400004D023685A1C22601970CFE7224628463A
:100A500000F0B0F90130C9D1E9E723680A205A1C37
:100A600022601870E5E700BF40130008601300081B
:100A700020130008024B01461868FFF79FBF00BF14
:100A800008000020838903F00903092B01D100F03D
:100A900023BB002070470000F8B50C46054618B18E
:100AA00083690BB9FFF752FE3C4B9C420AD16C683C
:100AB000B4F90C200023636093B29E060CD54FF06E
:100AC000FF3067E0364B9C4201D1AC68F0E7354B14
:100AD0009C4208BFEC68EBE7580749D4D90605D417
:100AE000092342F040022B60A281E8E71A070BD5E8
:100AF0002146284600F0C6FA0028E0D1A389A0606C
:100B000023F00803A381A061A38943F00403A38118
:100B100023691BB92146284600F026FBB4F90C7066
:100B2000BEB2B3070FD00123A3811F4B1F49186822
:100B300006F00906FFF776FE092EA78103D12146AC
:100B4000284600F019FA22692260666A6369216A00
:100B50002846B047002860601DDCB4F90C3017BF90
:100B6000002243F0200343F040036260A381A6E724
:100B7000616B0029CCD004F14403994202D028468D
:100B800000F03CFB236C636000206063002BBFD04F
:100B9000E36B2360F8BD0020FCE700BF40130008B2
:100BA000601300082013000880130008850A00085D
:100BB00038B5064C0023054608462360FFF7E0FBE6
:100BC000431C02D1236803B12B6038BDE400002030
:100BD0002DE9F7431D46514B1E6804460F469046CB
:100BE00026B1B36913B93046FFF7B0FD4C4B9C42B8
:100BF00052D17468B8F1020F06D0B8F1010F00F2BB
:100C00008980002DC0F286802146304600F03AFAF5
:100C1000616B41B104F14403994202D0304600F0C7
:100C2000EDFA002363630023A3616360A3891B06BD
:100C300003D52169304600F0E1FAA38923F44A6321
:100C400023F00303B8F1020FA3815DD001AB6A4624
:100C50002146304600F064FAA3891843A0812DBBD9
:100C6000009D284600F0C0FA074600284ED1DDF866
:100C70000090A9453CD14FF0FF30A38943F0020317
:100C8000A3810023A36004F14703236023610123B0
:100C9000636103B0BDE8F083224B9C4201D1B4688C
:100CA000A8E7214B9C4208BFF468A3E7002FD8D0E7
:100CB000B36913B93046FFF749FDB8F1010F08BF1A
:100CC000A389276004BF43F00103A381A38913F024
:100CD0000800C4E904751BD013F0010018BF6D4271
:100CE0004FF000031DBFA360A5611846A560D0E7C3
:100CF000484600F079FA07460028BCD0A38943F0A3
:100D00008003A3814D46D3E70020B6E7A946F5E767
:100D1000A060BEE74FF0FF30BBE700BF0800002037
:100D200040130008601300082013000810B50C469B
:100D3000B1F90E1000F0B0FA0028ABBF636DA389C3
:100D40001B1823F48053ACBF6365A38110BD2DE94C
:100D5000F0411F468B89DB0505460C46164605D536
:100D600002230022B1F90E1000F0C8F9A389B4F9EA
:100D70000E1023F48053A38132463B462846BDE83B
:100D8000F04100F069B810B50C46B1F90E1000F052
:100D9000B5F9431CA38915BF606523F4805343F460
:100DA0008053A38118BFA38110BDB1F90E1000F0CC
:100DB000D3B80000F8B50E461446054618B183694D
:100DC0000BB9FFF7C3FC214B9C422AD16C68A36985
:100DD000A360A3891A072ED5236963B3236920680A
:100DE000C01A6369F6B28342374604DC21462846BE
:100DF00000F048F928BBA368013BA36023685A1C94
:100E000022601E7063690130834204D0A389DB072E
:100E100019D50A2E17D12146284600F033F990B192
:100E20000FE00B4B9C4201D1AC68D0E7094B9C42D0
:100E300008BFEC68CBE72146284600F01FF80028E1
:100E4000CCD04FF0FF373846F8BD00BF4013000844
:100E5000601300082013000838B5074C0546084603
:100E60001146002222601A46FFF752FB431C02D1B2
:100E7000236803B12B6038BDE4000020324B70B50D
:100E80001D6806460C4625B1AB6913B92846FFF725
:100E90005DFC2E4B9C420FD16C68B4F90C309AB2B9
:100EA00015072CD4D00611D40922326043F0400338
:100EB000A3814FF0FF303EE0254B9C4201D1AC684E
:100EC000EBE7244B9C4208BFEC68E6E7510712D5DC
:100ED000616B41B104F14403994202D0304600F005
:100EE0008DF900236363A38923F02403A3810023E6
:100EF000636023692360A38943F00803A381236906
:100F00004BB9A38903F42073B3F5007F03D02146C6
:100F1000304600F029F9A28912F001030CD0002319
:100F2000A36063695B42A361236953B9B4F90C30D0
:100F300013F08000BAD170BD920758BF6369A360F7
:100F4000F2E70020F7E700BF080000204013000888
:100F5000601300082013000838B5064C002305462E
:100F600008462360FFF72AFA431C02D1236803B125
:100F70002B6038BDE40000208A892DE9F041054648
:100F800010070C4658D44B68002B05DC0B6C002B6B
:100F900002DC0020BDE8F081E66A002EF9D00023D3
:100FA00012F480522F68216A2B6032D0606DA389C1
:100FB0005A0705D56368C01A636B0BB1236CC01A5E
:100FC00000230246E66A216A2846B047431CA389EB
:100FD00006D129681D2948D8294ACA40D60744D5D0
:100FE00000226260D9042269226004D5421C01D12A
:100FF0002B6803B96065616B2F600029C9D004F1CB
:101000004403994202D0284600F0F8F800206063BB
:10101000C0E701232846B047411CC8D12B68002BEC
:10102000C5D01D2B01D0162B01D12F60B1E7A389AC
:1010300043F04003A381ADE70F69002FA9D09307C8
:101040000E6808BF4B690F6018BF0023A6EB0708A6
:101050008B60B8F1000F9CDD43463A46216AA66AD0
:101060002846B047002806DCA38943F04003A3814B
:101070004FF0FF308EE70744A8EB0008E9E700BF18
:101080000100402038B50B6905460C46DBB118B1AC
:1010900083690BB9FFF75AFB0C4B9C4209D16C6872
:1010A000B4F90C307BB121462846BDE83840FFF743
:1010B00063BF074B9C4201D1AC68F1E7054B9C42F2
:1010C00008BFEC68ECE7002038BD00BF4013000803
:1010D0006013000820130008014620B9044B05499D
:1010E0001868FFF7BBBB044B1868FFF7CBBF00BF06
:1010F00080130008851000080800002038B5074C50
:10110000054608461146002222601A46FFF760F99C
:10111000431C02D1236803B12B6038BDE4000020DA
:1011200070B50E46B1F90E10002996B014461D4652
:1011300007DA00232B60B3891A0610D44FF48063BA
:101140000EE06A4600F0BAF80028F2DB019A02F4D9
:101150007042A2F500535A425A412A60EEE74023FA
:101160000020236016B070BD8B8973B59D070646BD
:101170000C4607D504F14703236023610123636113
:1011800002B070BD01AB6A46FFF7CAFF0099054681
:101190003046FFF7B9FB48B9B4F90C309A05EFD4E3
:1011A00023F0030343F00203A381E3E70D4BB36293
:1011B000A389206043F08003A381009B6361019BAE
:1011C00020615BB1B4F90E10304600F089F828B107
:1011D000A38923F0030343F00103A381A3891D43E3
:1011E000A581CDE715070008024B01461868FFF7F7
:1011F0008BBB00BF080000207047704738B505461C
:10120000002945D051F8043C0C1F002BB8BFE4184E
:10121000FFF7F2FF1F4A1368104633B9636014608A
:101220002846BDE83840FFF7E8BFA3420CD9216843
:101230006218934204BF1A685B68636004BF521867
:1012400022600460ECE713465A680AB1A242FAD958
:1012500019685818A0420BD12068014458188242DE
:101260001960DDD1106852685A6001441960D7E7EF
:1012700002D90C232B60D3E7206821188A4204BFCF
:1012800011685268626004BF091821605C60C7E79A
:1012900038BD00BFD800002038B5074C05460846C9
:1012A0001146002222601A46FFF724F9431C02D19E
:1012B000236803B12B6038BDE400002038B5074C2B
:1012C00000230546084611462360FFF77AF8431CC1
:1012D00002D1236803B12B6038BD00BFE4000020B9
:1012E00038B5064C0023054608462360FFF76EF824
:1012F000431C02D1236803B12B6038BDE4000020F9
:10130000F8B500BFF8BC08BC9E467047F8B500BFF2
:08131000F8BC08BC9E467047C2
:101318005465737421000000000000000000000004
:1013280000000000000000000000000000000000B5
:1013380000000000000000000000000000000000A5
:101348000000000000000000000000000000000095
:101358000000000000000000000000000000000085
:101368000000000000000000000000000000000075
:0C13780000000000000000000C0000203D
:04138400F501000867
:04138800D101000887
:10138C0001000000100000000C0000200000000014
:10139C004013000860130008201300080000000030
:1013AC000000000000000000000000000000000031
:1013BC000000000000000000000000000000000021
:1013CC000000000000000000000000000000000011
:1013DC000000000000000000000000000000000001
:0C13EC00000000000000000000000000F5
:040000050800059951
:00000001FF
