:020000040800F2
:10000000000002202D15000809140008151400082E
:100010001B14000821140008271400080000000029
:100020000000000000000000000000002D14000887
:10003000391400080000000045140008511400089D
:100040007D1500087D1500087D1500087D15000848
:100050007D1500087D1500087D1500087D15000838
:100060007D1500087D1500087D1500087D15000828
:100070007D1500087D1500087D1500087D15000818
:100080007D1500087D1500087D1500087D15000808
:100090007D1500087D1500087D1500087D150008F8
:1000A0007D1500087D1500087D1500087D150008E8
:1000B0007D1500087D1500087D1500087D150008D8
:1000C0007D1500087D1500087D1500087D150008C8
:1000D0007D1500087D1500088D0700087D150008B6
:1000E0007D1500087D1500087D1500087D150008A8
:1000F0007D1500087D1500087D1500087D15000898
:100100007D1500087D1500087D1500087D15000887
:100110007D1500087D1500087D1500087D15000877
:100120007D1500087D1500087D1500087D15000867
:100130007D15000800000000000000007D1500088B
:100140007D1500087D1500087D1500087D15000847
:100150007D1500087D1500087D1500087D15000837
:100160007D1500087D1500087D1500087D15000827
:100170007D1500087D1500087D15000800000000B1
:10018000000000007D1500080000000000000000D5
:100190007D15000800000000000000007D1500082B
:1001A0000000000000000000000000007D150008B5
:1001B0007D1500087D1500087D1500087D150008D7
:0401C0007D150008A1
:1001D00010B5054C237833B9044B13B10448AFF381
:1001E00000800123237010BD680000200000000083
:1001F000FC2C000808B5034B1BB103490348AFF3BF
:10020000008008BD000000006C000020FC2C0008ED
:1002100053B94AB9002908BF00281CBF4FF0FF316D
:100220004FF0FF3000F06CB9ADF1080C6DE904CE71
:1002300000F006F8DDF804E0DDE9022304B07047C1
:100240002DE9F047089E0D4604468E46002B40F0EF
:1002500082808A42174646D9B2FA82F24AB1C2F186
:10026000200105FA02F320FA01F1974041EA030E5A
:1002700094404FEA1748230CBEFBF8FCB9B208FBC8
:100280001CEE43EA0E430CFB01F098420AD9FB181E
:100290000CF1FF3580F01681984240F21381ACF1E9
:1002A000020C3B441B1AA4B2B3FBF8F008FB10335A
:1002B00044EA034400FB01F1A14209D93C1900F1D1
:1002C000FF3380F00181A14240F2FE8002383C44BD
:1002D000641A40EA0C4000211EB1D4400023C6E954
:1002E0000043BDE8F08702B9FFDEB2FA82F2002ACD
:1002F0004FD1CB1B4FEA174E1FFA87F80121B3FBF2
:10030000FEFC250C0EFB1C3345EA034508FB0CF3F1
:10031000AB4207D97D190CF1FF3002D2AB4200F29B
:10032000E7808446ED1AA3B2B5FBFEF00EFB105534
:1003300043EA054408FB00F8A04507D93C1900F141
:10034000FF3302D2A04500F2D7801846A4EB080480
:1003500040EA0C40C0E78B4208D9002E00F0AF8085
:100360000021C6E900050846BDE8F087B3FA83F12D
:1003700000294BD1AB4202D3824200F2B780841AEB
:1003800065EB030301209E46002EAAD0C6E9004E6D
:10039000A7E7C2F1200C01FA02F3974020FA0CF013
:1003A0004FEA174E21FA0CFC1843BCFBFEF1050C7A
:1003B0000EFB11CC1FFA87F845EA0C4501FB08F348
:1003C000AB4204FA02F409D97D1901F1FF3C80F037
:1003D0008B80AB4240F2888002393D44EB1A85B2F3
:1003E000B3FBFEF00EFB103345EA034500FB08F3B8
:1003F000AB4207D97D1900F1FF3C71D2AB426FD9F6
:1004000002383D44EB1A40EA014178E7C1F1200C83
:100410008B4022FA0CF71F4320FA0CF405FA01F383
:100420004FEA174E25FA0CF51C43230CB5FBFEF9D9
:100430001FFA87F80EFB195543EA054509FB08FA30
:10044000AA4502FA01F200FA01F308D97D1909F16F
:10045000FF3047D2AA4545D9A9F102093D44A5EB91
:100460000A05A4B2B5FBFEF00EFB105544EA0544A4
:1004700000FB08F8A04507D93C1900F1FF352DD243
:10048000A0452BD902383C4440EA0940A4EB0804BB
:10049000A0FB02894C45C6464D4619D316D05EB125
:1004A000B3EB0E0264EB050404FA0CFCCA404CEA00
:1004B0000202CC40C6E900240021BDE8F0873146A5
:1004C00030460EE7AC46EDE6184601E74345E6D276
:1004D000B8EB020E69EB07050138E0E72846D3E7E1
:1004E00060468FE78146BAE7614677E708464BE703
:1004F000ACF1020C3D4415E702383C4426E700BF4E
:10050000704700BF00000000000000000000000075
:1005100001F0FF01102A2BDB10F0070F08D010F8B4
:10052000013B013A8B422DD010F0070F42B3F6D1B8
:10053000F0B441EA012141EA014122F007047FF0D1
:1005400000070023F0E80256083C85EA010586EA28
:10055000010685FA47F5A3FA87F586FA47F6A5FA64
:1005600087F68EB9EED1F0BC01F0FF0102F0070270
:1005700032B110F8013B013A83EA010313B1F8D11B
:100580000020704701387047002D06BF35460338FC
:10059000073815F0010F07D1013015F4807F02BF35
:1005A000013015F4C03F0130F0BC0138704700BF86
:1005B00010F8012B11F8013B012A28BF9A42F7D00D
:1005C000D01A704790B5ADF61C0D00AFC7F81408EF
:1005D000C7F81018364C3B46184600F037F93B4632
:1005E000204619464FF401631A4601F060FA314C77
:1005F0003B46184600F02AF93B46204619464FF480
:1006000001631A4601F053FA2B4B1B6B2A4A43F045
:1006100001031363284B1B6C274A43F40033136414
:10062000264BDB68254A43F05003D360234B1B68FD
:10063000224A23F0F0031360204B1B681F4A43F04B
:10064000A00313601D4B1B6A1C4A23F47F431362F3
:100650001A4B1B6A194A43F4EE431362D7F8102869
:10066000D7F8143892FBF3F2154B9A60144BDB6801
:10067000134A43F4005343F00C03D360104BDB6880
:100680000F4A43F0A003D3600E4B5B680D4A43F062
:10069000400353600C4B1B68986800230222002122
:1006A00001F00AFC00BF07F61C07BD4690BD00BF65
:1006B000840000209408002000380240000002401E
:1006C0000044004000E100E00400002080B586B056
:1006D00000AFF860B9607A6000BF144800F02FF9ED
:1006E0000346002BF9D100237B610CE07B690133C9
:1006F0007B610E4800F0F9F803461A46BB681A7091
:10070000BB680133BB60094800F019F90346002BB0
:10071000ECD0BB681B780D2B02D1BB680A221A7083
:100720007B6918461837BD4680BD00BF8400002095
:1007300080B586B000AFF860B9607A6000237B6155
:100740000BE0BB681B7819460E4800F0A3F87B69E4
:1007500001337B61BB680133BB607A697B689A4275
:1007600005DA084800F0F6F80346002BE9D0064BFE
:10077000DB68054A43F08003D3607B69184618376D
:10078000BD4680BD940800200044004080B582B082
:1007900000AF224B1B6803F02003002B20D0204821
:1007A00000F0D8F80346002B1AD11C4B5B68FB7194
:1007B000FB7919461A4800F06DF81A4800F0CAF89B
:1007C0000346002B04D1FB791946164800F062F865
:1007D000124BDB68114A43F08003D36000BF19E07D
:1007E0000E4B1B6803F08003002B13D00D4800F064
:1007F000A6F80346002B07D10A4800F076F8034616
:100800001A46064B5A6005E0044BDB68034A23F0A6
:100810008003D36000BF0837BD4680BD0044004060
:10082000840000209408002080B400AF054B1B78A2
:100830001A46054B1B681344034A136000BFBD46AC
:1008400080BC704700000020A410002080B5ADF6E9
:10085000180D00AF3B1D186007F1080318464FF450
:1008600001631A46002101F030F907F10803012263
:100870009A603B1D1A6807F10803104619464FF4A9
:1008800001631A4601F013F93B1D186807F61807B3
:10089000BD4680BD80B483B000AF78600B46FB706E
:1008A0007B681B68591C7A6811607A681344FA786F
:1008B0001A747B681B68B3F5006F02D17B68002255
:1008C0001A607B681A687B685B689A420CBF0123D8
:1008D0000023DBB21A467B68DA607B6800229A60EC
:1008E00000BF0C37BD4680BC704780B485B000AFF8
:1008F00078607B685B68591C7A6851607A68134439
:100900001B7CFB737B685B68B3F5006F02D17B686F
:1009100000225A607B685A687B681B689A420CBF49
:1009200001230023DBB21A467B689A607B680022B1
:10093000DA60FB7B18461437BD4680BC704780B434
:1009400083B000AF78607B689B6818460C37BD4663
:1009500080BC704780B483B000AF78607B68DB6890
:1009600018460C37BD4680BC7047000080B588B083
:1009700000AF70494FF49640FFF724FE0523BB609B
:1009800007F1080319466C4801F050F96B4801F073
:100990004DF900F095F900F0D7FA0346002BF5D099
:1009A0003B460621184600F0A7F93B466449184625
:1009B000FFF7FEFD0346002B33D11023BB6100F08F
:1009C000C3FA0346002B03D15E4801F0C9F9ADE03C
:1009D00000F08CFB0346002B04D100F045FC0346DD
:1009E000002B19D000F082FB0346002B03D000F04F
:1009F00063FAF86102E000F087FAF86100F076FB34
:100A00000346002B02D000F057FAB861FB69B969C0
:100A1000184600F0CDF889E04B49012000F0A4F819
:100A200084E03B4649491846FFF7C2FD0346002BC8
:100A300003D1474801F094F978E03B464549184610
:100A4000FFF7B6FD0346002B23D100F07DFA0346E5
:100A5000002B03D1404801F083F967E000F046FB2A
:100A60000346002B04D100F0FFFB0346002B5DD0B2
:100A700000F03CFB0346002B03D000F01DFA786128
:100A800002E000F041FA78617B69184600F0E8F86E
:100A90004CE03B4631491846FFF78AFD0346002BE0
:100AA0003FD100F051FA0346002B03D12C4801F04E
:100AB00057F93BE000F01AFB0346002B04D100F08D
:100AC000D3FB0346002B31D000F010FB0346002B74
:100AD00003D000F0F1F9386102E000F015FA386156
:100AE00000F004FB0346002B04D100F0BDFB0346DD
:100AF000002B11D000F0FAFA0346002B03D000F0CF
:100B0000DBF9F86002E000F0FFF9F8603B69F96892
:100B1000184600F0C5F809E01249012000F024F859
:100B200004E03B461946002000F01EF80A2001F0C0
:100B300095F82BE70024F400142D0008302D000850
:100B4000342D00083C2D00089C2D0008A42D000821
:100B5000AC2D0008A42E0008AC2E0008102F0008B1
:100B6000182F0008842F000880B582B000AF78608D
:100B700039607B68002B03D07B68012B05D009E02E
:100B80003968084801F052F808E03968064801F071
:100B90004DF803E0054801F0E3F800BF00BF083757
:100BA000BD4680BD8C2F0008B42F0008D82F000848
:100BB00080B584B000AF7860396079683B687A6846
:100BC00013440A463968224801F030F8214801F000
:100BD000C7F80023FB602FE0FB6803F07F03002BC6
:100BE00005D1FB68002B02D00A2001F037F8FB6822
:100BF00003F00F03002B0CD1FB68002B02D00A205E
:100C000001F02CF8FB687A6813441946124801F089
:100C10000DF8FB6803F00303002B02D1092001F05B
:100C20001DF8FB687A6813441B7819460B4800F0DE
:100C3000FDFFFB680133FB60FA683B689A42CBDB3F
:100C40000A2001F00BF800BF1037BD4680BD00BF81
:100C5000F82F00082C300008643000086C300008C1
:100C600080B582B000AF78607B681946094800F013
:100C7000DDFF7B681B681946074800F0D7FF7B68DB
:100C80001B681946054800F0D1FF00BF0837BD4674
:100C900080BD00BF74300008843000089030000828
:100CA00080B582B000AF786039603A687B681A60BE
:100CB0007868FFF7D5FF00BF0837BD4680BD00004C
:100CC00080B500AF094B1B685B681A46FA210848DB
:100CD00000F0AAFD054B1B685B68184600F018FD84
:100CE000044B00221A6000BF80BD00BF040000203A
:100CF000A8100020A411002080B485B000AF786057
:100D0000396004E0694B1B680133684A1360674B24
:100D10001B68674AD35C0133664A13441B7803F0AF
:100D20000803002B0BD1614B1B68614AD35C013374
:100D3000604A13441B7803F09703002B26D15B4BCA
:100D40001B685B4AD35C002B20D0584B1B68584A69
:100D5000D35C0133574A13441B7803F00803002B7C
:100D6000D0D0524B1B68524AD35CFB72FB7A0133E2
:100D7000504A13441B785BB2002B02DBFB7A092B31
:100D800001D1012300E00023002BBBD10023FB6035
:100D90000DE0464B1B685A1C44490A60FA68511C16
:100DA000F96011467A680A444149CB5C13703F4BA5
:100DB0001B683F4AD35C01333E4A13441B7803F05F
:100DC0000803002B37D1394B1B68394AD35C0133F8
:100DD000384A13441B7803F09703002B2BD0334B76
:100DE0001B68334AD35C002B25D0304B1B68304A3C
:100DF000D35C01332F4A13441B7803F00803002B04
:100E000014D02A4B1B682A4AD35CBB72BB7A0133CD
:100E1000284A13441B785BB2002B02DBBB7A092BF8
:100E200001D1012300E00023002B04D03B68013BEB
:100E3000FA689A42ADDB1D4B1B681D4AD35C002B40
:100E40002AD01A4B1B681A4AD35C0133194A13443F
:100E50001B7803F00803002B14D0144B1B68144AB2
:100E6000D35C7B727B7A0133124A13441B785BB2EA
:100E7000002B02DB7B7A092B01D1012300E0002348
:100E8000002B09D03B68013BFA689A4204DA074B11
:100E90001B680133054A1360FB687A68134400221B
:100EA0001A7000BF1437BD4680BC7047A4110020E3
:100EB000A81000209D30000880B586B000AF3B1D13
:100EC0000C211846FFF718FF3B1D0A220021184687
:100ED00001F092F9C7E90401D7E904236FF000405B
:100EE0004FF00001904271EB030306DBD7E90423C6
:100EF000B2F1004F73F1FF3301DA002300E03B69E8
:100F000018461837BD4680BD80B586B000AF3B1D82
:100F10000C211846FFF7F0FE3B1D10220021184659
:100F200001F00EFA02460B46C7E90423D7E9042371
:100F3000002A73F1010301DB002300E03B6918463E
:100F40001837BD4680BD000080B485B000AF0023D7
:100F5000BB6002E0BB680133BB60614B1A68BB68D1
:100F60001344604AD35C01335F4A13441B7803F097
:100F70000803002B2CD05A4B1A68BB681344594AFB
:100F8000D35C002B24D0564B1A68BB681344554AD7
:100F9000D35C0133544A13441B7803F00803002B3D
:100FA000D8D04F4B1A68BB6813444E4AD35CFB73CE
:100FB000FB7B01334C4A13441B785BB2002B02DBF2
:100FC000FB7B092B01D1012300E00023002BC1D1C1
:100FD00000237B6002E07B6801337B60404B1A6832
:100FE000BB681A447B6813443E4AD35C01333E4AD3
:100FF00013441B7803F00803002B32D1384B1A68D6
:10100000BB681A447B681344364AD35C002B28D053
:10101000334B1A68BB681A447B681344314AD35C6B
:101020000133314A13441B7803F00803002BD2D05C
:101030002B4B1A68BB681A447B681344294AD35C5B
:10104000BB73BB7B0133284A13441B785BB2002B74
:1010500002DBBB7B092B01D1012300E00023002B25
:10106000B9D17B68002B32D11D4B1A68BB681A447A
:101070007B6813441B4AD35C002B2AD0184B1A6898
:10108000BB681A447B681344164AD35C0133164A82
:1010900013441B7803F00803002B18D0104B1A6878
:1010A000BB681A447B6813440E4AD35C7B737B7B1A
:1010B00001330D4A13441B785BB2002B02DB7B7BB0
:1010C000092B01D1012300E00023002B01D00123D3
:1010D00000E0002318461437BD4680BC704700BFAF
:1010E000A4110020A81000209D30000880B584B015
:1010F00000AF0023FB600023BB60FFF725FF034622
:10110000002B5DD002E0FB680133FB60534B1A6893
:10111000FB681344524AD35C0133524A13441B7890
:1011200003F00803002B2CD04C4B1A68FB681344C7
:101130004B4AD35C002B24D0484B1A68FB681344FD
:10114000474AD35C0133474A13441B7803F0080332
:10115000002BD8D0414B1A68FB681344404AD35C3B
:10116000FB71FB7901333F4A13441B785BB2002BC0
:1011700002DBFB79092B01D1012300E00023002BC6
:10118000C1D1364B1A68FB681344354AD35C2D2B0A
:1011900006D1FB680133FB6002E0BB680133BB6032
:1011A0002E4B1A68FB681A44BB6813442C4AD35C64
:1011B00001332C4A13441B7803F00403002BECD1B9
:1011C000BB68002B44D0254B1A68FB681A44BB68E7
:1011D0001344234AD35C0133224A13441B7803F09F
:1011E0000803002B32D11D4B1A68FB681A44BB68F8
:1011F00013441B4AD35C002B28D0184B1A68FB6899
:101200001A44BB681344164AD35C0133154A13448D
:101210001B7803F00803002B1AD0104B1A68FB68E8
:101220001A44BB6813440E4AD35CBB71BB790133CB
:101230000C4A13441B785BB2002B02DBBB79092BF1
:1012400001D1012300E00023002B01D1012300E0A4
:10125000002318461037BD4680BD00BFA4110020F2
:10126000A81000209D30000880B584B000AF002396
:10127000FB600023BB60FFF767FE0346002B6FD0C7
:1012800002E0FB680133FB605C4B1A68FB681344A7
:101290005B4AD35C01335B4A13441B7803F00803B9
:1012A000002B2CD0554B1A68FB681344544AD35C6E
:1012B000002B24D0514B1A68FB681344504AD35C6E
:1012C0000133504A13441B7803F00803002BD8D095
:1012D0004A4B1A68FB681344494AD35CFB71FB799B
:1012E0000133484A13441B785BB2002B02DBFB79C5
:1012F000092B01D1012300E00023002BC1D13F4B7A
:101300001A68FB6813443E4AD35C302B18D13B4B20
:101310001A68FB6813440133394AD35C782B08D030
:10132000364B1A68FB6813440133354AD35C582B9B
:1013300006D1FB680233FB6002E0BB680133BB608F
:101340002E4B1A68FB681A44BB6813442C4AD35CC2
:1013500001332C4A13441B7803F04403002BECD1D7
:10136000BB68002B44D0254B1A68FB681A44BB6845
:101370001344234AD35C0133224A13441B7803F0FD
:101380000803002B32D11D4B1A68FB681A44BB6856
:1013900013441B4AD35C002B28D0184B1A68FB68F7
:1013A0001A44BB681344164AD35C0133154A1344EC
:1013B0001B7803F00803002B1AD0104B1A68FB6847
:1013C0001A44BB6813440E4AD35CBB71BB7901332A
:1013D0000C4A13441B785BB2002B02DBBB79092B50
:1013E00001D1012300E00023002B01D1012300E003
:1013F000002318461037BD4680BD00BFA411002051
:10140000A81000209D30000880B400AF00BFBD468A
:1014100080BC704780B400AFFEE780B400AFFEE749
:1014200080B400AFFEE780B400AFFEE780B400AF49
:1014300000BFBD4680BC704780B400AF00BFBD4652
:1014400080BC704780B400AF00BFBD4680BC704711
:1014500080B500AFFFF7E8F900BF80BD80B584B06C
:1014600000AF7860114B1B68002B02D10F4B104A64
:101470001A600E4B1B68FB600C4B1A687B681344A8
:101480006A46934207D900F07BF803460C221A60A3
:101490004FF0FF3306E0054B1A687B681344034A9C
:1014A0001360FB6818461037BD4680BDA8110020A8
:1014B000C811002080B483B000AF78604FF0FF33D4
:1014C00018460C37BD4680BC704780B483B000AF6F
:1014D000786039603B684FF400525A600023184628
:1014E0000C37BD4680BC704780B483B000AF7860D5
:1014F000012318460C37BD4680BC704780B485B0C8
:1015000000AFF860B9607A60002318461437BD4612
:1015100080BC704780B400AF034B4FF000629A600C
:1015200000BFBD4680BC704700ED00E0DFF834D05E
:10153000002103E00C4B5B58435004310B480C4B2B
:1015400042189A42F6D30B4A02E0002342F8043BC9
:10155000094B9A42F9D3FFF7DDFF00F081FAFFF75C
:1015600005FA704700000220483200080000002001
:101570006800002068000020C4110020FEE7000081
:10158000014B1868704700BF040000208A892DE9CC
:10159000F041054610070C4658D44B68002B05DC7B
:1015A0000B6C002B02DC0020BDE8F081E66A002E07
:1015B000F9D0002312F480522F682B6032D0606D76
:1015C000A3895A0705D56368C01A636B0BB1236CF6
:1015D000C01A00230246E66A216A2846B047431C27
:1015E000A38906D129681D292CD82A4ACA40D607C2
:1015F00028D500226260D9042269226004D5421CE9
:1016000001D12B6803B96065616B2F600029CAD0D6
:1016100004F14403994202D0284600F05FFA00200A
:101620006063C1E7216A01232846B047411CC7D146
:101630002B68002BC4D01D2B01D0162B01D12F609D
:10164000B1E7A38943F04003A381ADE70F69002F01
:10165000A9D093070E6808BF4B690F6018BF00231D
:10166000A6EB07088B60B8F1000F9CDD216AA66A23
:1016700043463A462846B047002806DCA38943F093
:101680004003A3814FF0FF308EE70744A8EB00082A
:10169000E9E700BF0100402038B50B6905460C465C
:1016A00013B90025284638BD18B183690BB900F07D
:1016B0001DF9144B9C421BD16C68B4F90C30002B03
:1016C000EFD0626ED00704D4990502D4A06D00F06B
:1016D000ECF928462146FFF759FF636EDA07054605
:1016E000E0D4A3899B05DDD4A06D00F0DFF9D9E734
:1016F000054B9C4201D1AC68DFE7044B9C4208BF1C
:10170000EC68DAE7C0310008E0310008A0310008D9
:10171000014620B9044B0549186800F082B9044B12
:101720001868FFF7B9BF00BF00320008991600081B
:1017300004000020012A2DE9F04780460D46174697
:101740001C4603DC00252846BDE8F08718B18369F4
:101750000BB900F0CBF8314B9C4220D1D8F80440B3
:10176000636EDE0705D4A389980502D4A06D00F04E
:101770009CF9013FA9466668F6B92146404600F04B
:1017800001FBC0B1A94545D1636ED907DAD4A5895B
:1017900015F40075D6D1A06D00F088F9D3E7204B81
:1017A0009C4202D1D8F80840DAE71E4B9C4208BFA1
:1017B000D8F80C40D4E76668D4F800A0BE4228BF31
:1017C0003E4632460A215046FEF7A2FE6368A0B1AB
:1017D0000130A0EB0A069B1BC4E9000332465146C8
:1017E000484600F064F9002309F80630636EDA0712
:1017F000A9D4A3899B05A6D4CDE79B1B636023686E
:101800003344484623603246514600F050F9BF1B2E
:10181000B144B0D1002389F80030E7E7C0310008B7
:10182000E0310008A031000813460A46014602488C
:101830000068FFF77FBF00BF04000020002310B541
:101840000446C0E90033C0E9043383608181436604
:10185000C2818361194608225C3000F036F9054BDD
:101860006362054BA362054BE362054B246223636D
:1018700010BD00BF45200008672000089F20000819
:10188000C3200008014900F0CCB800BF9916000839
:1018900070B54A1E682555430E4605F1740100F0E7
:1018A0006BF9044640B10021C0E900160C30A0607D
:1018B00005F1680200F009F9204670BD014800F00A
:1018C000F4B800BFBC110020014800F0EFB800BF21
:1018D000BC110020014800F0E8B800BFB71100209B
:1018E000014800F0E3B800BFB711002010B504466E
:1018F000FFF7F0FFA3691BB1BDE81040FFF7F0BF91
:10190000C4E912332365134B134A1B68A262A34236
:1019100004BF0123A361204600F020F86060204648
:1019200000F01CF8A060204600F018F80022E060EB
:1019300004216068FFF782FFA06801220921FFF7F8
:101940007DFFE06802221221FFF778FF0123A361E7
:10195000D2E700BF0032000885180008F8B5074636
:10196000FFF7ACFF1E4B1E68B36913B93046FFF793
:10197000BDFF4836D6E90134013B03D533680BB3CC
:101980003668F7E7B4F90C50D5B9164BE36004F1AB
:101990005800656600F088F8FFF796FFC4E9015526
:1019A000C4E904552560A5610822294604F15C00BC
:1019B00000F08BF8C4E90D55C4E912552046F8BD76
:1019C0006834D9E704213846FFF762FF04463060E7
:1019D0000028D5D1FFF778FF0C233B60EEE700BF6E
:1019E000003200080100FFFF2DE9F0410F4600F131
:1019F00048040026D4E90185B8F1010805D524681A
:101A0000002CF7D13046BDE8F081AB89012B06D917
:101A1000B5F90E30013302D02846B8470643683581
:101A2000EAE72DE9F8430646884600F14804002716
:101A3000D4E90195B9F1010905D52468002CF7D145
:101A40003846BDE8F883AB89012B07D9B5F90E30CC
:101A5000013303D029463046C04707436835E9E7DC
:101A600070B50D4D0D4C641BA4100026A64209D183
:101A70000B4D0C4C01F042F9641BA4100026A64249
:101A800005D170BD55F8043B98470136EEE755F88F
:101A9000043B98470136F2E7403200084032000824
:101AA00040320008443200087047704770470A44CB
:101AB000914200F1FF3300D1704710B511F8014B8E
:101AC00003F8014F9142F9D110BD024403469342FD
:101AD00000D1704703F8011BF9E7000038B505464F
:101AE000002945D051F8043C0C1F002BB8BFE41866
:101AF00000F090FD1F4A1368104633B9636014600C
:101B00002846BDE8384000F08BBDA3420BD92168C0
:101B10006218934204BF1A685B68636004BF52187E
:101B200022600460ECE71A465B680BB1A342FAD965
:101B300011685018A0420BD120680144501883420C
:101B40001160DDD118685B68536001441160D7E70C
:101B500002D90C232B60D3E7206821188B4204BFE5
:101B600019685B68636004BF091821605460C7E7A7
:101B700038BD00BFAC110020F8B5CD1C25F0030521
:101B800008350C2D38BF0C25002D064601DBA94277
:101B900003D90C2333600020F8BD00F03BFD214940
:101BA0000A6814469CB9204F3B6823B92146304649
:101BB00000F072F938602946304600F06DF9431C98
:101BC00023D10C233360304600F02AFDE3E723687D
:101BD0005B1B17D40B2B03D923601C44256004E046
:101BE0006368A2420CBF0B605360304600F018FDE2
:101BF00004F10B00231D20F00700C21ACCD01B1AE1
:101C0000A350C9E722466468CCE7C41C24F003044F
:101C1000A042E3D0211A304600F03EF90130DDD178
:101C2000CFE700BFAC110020B01100200FB40A4B69
:101C300013B51C6824B1A36913B92046FFF756FEFB
:101C400005AB049AA1680193204600F017FD02B08D
:101C5000BDE8104004B070470400002038B5084BC0
:101C60001C68054624B1A36913B92046FFF73EFE60
:101C7000A26829462046BDE8384000F0C3BF00BF37
:101C80000400002070B50E46054618B183690BB9F3
:101C9000FFF72CFEAB69AC6813B92846FFF726FEA8
:101CA0002C4B9C4220D16C68636EDB0705D4A38962
:101CB000980502D4A06DFFF7F8FEA38919071DD57A
:101CC0002369DBB1013EA36816F8011F013BA36045
:101CD00039BB002B38DA22460A21284600F03AFBAD
:101CE000013011D00A2511E01B4B9C4201D1AC6898
:101CF000DAE71A4B9C4208BFEC68D5E72146284634
:101D000000F08CFB0028DDD04FF0FF35636EDA0762
:101D100005D4A3899B0502D4A06DFFF7C7FE284612
:101D200070BD002B04DAA2699A4206DC0A2904D0AD
:101D300023685A1C22601970C5E72246284600F025
:101D400009FB0130BFD1DFE723680A255A1C226056
:101D50001D70DBE7C0310008E0310008A031000849
:101D6000024B01461868FFF78DBF00BF040000203A
:101D7000838903F00903092B01D1FFF7C9BC0020B7
:101D800070470000F8B50C46054618B183690BB9D9
:101D9000FFF7ACFD3B4B9C420AD16C68B4F90C20B8
:101DA00000236360A3899E060CD54FF0FF3066E0E8
:101DB000354B9C4201D1AC68F0E7344B9C4208BFE4
:101DC000EC68EBE7580748D4D90605D409232B6003
:101DD00042F04003A381E8E71A070BD521462846C5
:101DE000FFF75AFC0028E0D1A389A06023F0080384
:101DF000A381A061A38943F00403A38123691BB9D4
:101E00002146284600F0BEFBA689B4F90C70B30742
:101E10000FD00123A3811E4B1E49186806F0090646
:101E2000FFF7E2FD092EA78103D121462846FFF7DF
:101E3000ADFB2269666A6369216A22602846B04761
:101E4000002860601CDCB4F90C3017BF002243F09E
:101E50002003626043F04003BCE7616B0029CDD0F2
:101E600004F14403994202D02846FFF737FE236C61
:101E7000636000206063002BC0D0E36B2360F8BD7B
:101E80000020FCE7C0310008E0310008A031000864
:101E900000320008711D000838B5064D00230446C5
:101EA00008462B60FFF7DAFA431C02D12B6803B116
:101EB000236038BDC01100202DE9F7431D465D4B5E
:101EC0001F6804460E46904627B1BB6913B93846D1
:101ED000FFF70CFD584B9C4267D17C68B8F1020FAC
:101EE00006D0B8F1010F00F29F80002DC0F29C8057
:101EF000636EDB0705D4A389980502D4A06DFFF7B4
:101F0000D4FD21463846FFF7C7FB616B41B104F1B0
:101F10004403994202D03846FFF7E0FD0023636393
:101F20000023A3616360A389190603D5216938469C
:101F3000FFF7D4FDA38923F44A6323F00303B8F128
:101F4000020FA3816CD001AB6A462146384600F0EF
:101F5000F5FAA3891843A081002D30D1009D2846B1
:101F600000F050FB0646002855D1DDF80090A94549
:101F70004AD14FF0FF350022A26004F147022260EF
:101F800022610122B4F90C306261626E43F00203F7
:101F9000D207A38105D413F4007F02D1A06DFFF70F
:101FA00085FD284603B0BDE8F083244B9C4201D157
:101FB000BC6893E7224B9C4208BFFC688EE7002E6A
:101FC000CDD0BB6913B93846FFF790FCB8F1010FCB
:101FD00008BFA389266004BF43F00103A381A2893F
:101FE00012F00803C4E904651CD0D30741BF0023E5
:101FF0006D42A360A56158BFA560656E15F001052F
:1020000015D112F4007FC8E7484600F0FBFA0646F7
:102010000028AED04D46A38943F08003A381D0E7CA
:102020000025A8E7A360E8E74FF0FF35B9E70025F2
:10203000B7E700BF04000020C0310008E03100080D
:10204000A031000810B50C46B1F90E1000F022FEC8
:102050000028ABBF636DA3891B1823F48053ACBF6A
:102060006365A38110BD2DE9F0411F468B89DB0517
:1020700005460C46164605D5B1F90E10022300227E
:1020800000F04AFAA389B4F90E1023F48053A38117
:1020900032463B462846BDE8F04100F0ADB910B5E8
:1020A0000C46B1F90E1000F037FA431CA38915BF96
:1020B000606523F4805343F48053A38118BFA38148
:1020C00010BDB1F90E1000F017BA00002DE9F04F65
:1020D00087B09146474A059088461F460D462B46D5
:1020E00015F8014BA65C16F00806F8D12D2C47D147
:1020F0002C7801269D1C002F77D0102F09D1302C71
:1021000007D12B7803F0DF03582B69D16C781027A7
:1021100002354FF0FF3290196FF000434FEAE77B32
:1021200043EBE6713A465B46CDE90001FEF770F8F5
:10213000CDE90201BA469646002300200021A4F111
:10214000300CBCF1090F20D86446A7422EDD5A1C82
:1021500013D0DDE902238B4208BF824223D301D191
:10216000A64520DB0AFB01F300FB0B33AAFB0001B1
:102170001944001941EBE471012315F8014BDEE726
:102180002B2C04BF2C789D1CB5E7A4F1410CBCF1AD
:10219000190F01D8373CD8E7A4F1610CBCF1190F35
:1021A00004D8573CD1E74FF0FF33E6E75A1C0AD179
:1021B000059A2223DDE900011360B9F1000F0AD16D
:1021C00007B0BDE8F08F16B1404261EB4101B9F1B3
:1021D000000FF5D00BB105F1FF38C9F80080EFE72B
:1021E0003024002F95D1082793E7302C89D00A2777
:1021F0008FE700BF9E30000813460A46014602489A
:102200000068FFF763BF00BF040000202DE9F04F16
:1022100085B09146494A039088461E460D462B4696
:1022200015F8014BA75C17F00807F8D12D2C4AD1FF
:102230002C7801279D1C002E7CD0102E09D1302C2B
:1022400007D12B7803F0DF03582B6ED16C78102662
:1022500002354FEAE67B32465B464FF0FF304FF0E7
:10226000FF31FDF7D5FFCDE9000132465B464FF067
:10227000FF304FF0FF31FDF7CBFFB246964600230B
:1022800000200021A4F1300CBCF1090F20D86446D5
:10229000A6422EDD002B29DBDDE900238B4208BF9F
:1022A000824223D301D1A64520DB0AFB01F300FBC8
:1022B0000B33AAFB00011944001941EBE47101231F
:1022C00015F8014BDEE72B2C04BF2C789D1CB2E7E0
:1022D000A4F1410CBCF1190F01D8373CD8E7A4F1A7
:1022E000610CBCF1190F04D8573CD1E74FF0FF3314
:1022F000E6E7002B0CDA039A222313604FF0FF303D
:102300004FF0FF31B9F1000F0AD105B0BDE8F08FF1
:1023100017B1404261EB4101B9F1000FF5D00BB1AB
:1023200005F1FF38C9F80080EFE73024002E90D186
:1023300008268EE7302C84D00A268AE79E300008D3
:1023400013460A46014602480068FFF75FBF00BF18
:1023500004000020F8B50E461446054618B18369FE
:102360000BB9FFF7C3FA214B9C422BD16C68A369D0
:10237000A360A3891A072FD523696BB3236920684B
:10238000C01A6369F6B28342374604DC2146284608
:10239000FFF782F930BBA368013BA36023685A1C96
:1023A00022601E7063690130834204D0A389DB0779
:1023B00006D50A2E04D121462846FFF76DF988B9C3
:1023C0003846F8BD0A4B9C4201D1AC68CFE7094BB7
:1023D0009C4208BFEC68CAE72146284600F01EF878
:1023E0000028CBD04FF0FF37EAE700BFC03100082C
:1023F000E0310008A031000838B5074D0446084612
:10240000114600222A601A46FEF792F9431C02D1B7
:102410002B6803B1236038BDC0110020324B70B56A
:102420001D6806460C4625B1AB6913B92846FFF76F
:102430005DFA2E4B9C420FD16C68A389B4F90C2035
:1024400019072CD4DD0611D40923336042F0400370
:10245000A3814FF0FF303EE0254B9C4201D1AC6898
:10246000EBE7244B9C4208BFEC68E6E7580712D51F
:10247000616B41B104F14403994202D03046FFF749
:102480002DFB00236363A38923F02403A38100238E
:10249000636023692360A38943F00803A381236950
:1024A0004BB9A38903F42073B3F5007F03D0214611
:1024B000304600F067F8A089B4F90C2010F0010351
:1024C0000AD00023A36063695B42A361236943B917
:1024D00010F08000BAD170BD810758BF6369A36056
:1024E000F4E70020F7E700BF04000020C031000837
:1024F000E0310008A031000838B5064D002304463D
:1025000008462B60FEF7D6FF431C02D12B6803B1AF
:10251000236038BDC011002038B5074D0446084679
:10252000114600222A601A46FEF7E8FF431C02D13A
:102530002B6803B1236038BDC011002070B50E4672
:10254000B1F90E10002996B014461D4607DA002393
:102550002B60B3891A0610D44FF480630EE06A46EC
:1025600000F0AAFB0028F2DB019A02F47042A2F507
:1025700000535A425A412A60EEE74023002023606C
:1025800016B070BD8B8973B59D0706460C4607D5FE
:1025900004F14703236023610123636102B070BD2E
:1025A00001AB6A46FFF7CAFF009905463046FFF7C0
:1025B000E3FA48B9B4F90C309A05EFD423F00303D9
:1025C00043F00203A381E3E70D4BB362A3892060CC
:1025D00043F08003A381009B6361019B20615BB199
:1025E000B4F90E10304600F079FB28B1A38923F02E
:1025F000030343F00103A381A0890543A581CDE72F
:1026000085180008024B01461868FFF7B5BA00BFED
:10261000040000200148FFF748BA00BFB8110020AD
:102620000148FFF743BA00BFB81100209368013B8F
:10263000002B10B4936007DA9469A34201DB0A29E6
:1026400002D110BCFFF786BE1368581C10601970C9
:10265000084610BC7047F8B506460F461446D51814
:10266000AC4201D1002007E014F8011B3A46304685
:10267000FFF7DCFF431CF3D1F8BD00002DE9F04F5C
:102680000D469DB014469846064618B183690BB9AD
:10269000FFF72CF9894B9D421BD175686B6ED907EA
:1026A00005D4AB899A0502D4A86DFFF7FEF9AB8972
:1026B0001B0701D52B69EBB929463046FFF7AEFE63
:1026C000C0B16B6EDC070ED54FF0FF301DB0BDE81A
:1026D000F08F7B4B9D4201D1B568DFE7794B9D427E
:1026E00008BFF568DAE7AB899805EDD4A86DFFF768
:1026F000DDF9E9E70023099320238DF82930CDF88F
:102700000C803023DFF8C0818DF82A304FF00109AA
:1027100023469A4613F8012B0AB1252AF9D1BAEBC0
:10272000040B0BD05B46224629463046FFF793FF49
:10273000013000F0AA80099A5A4409929AF80030B0
:10274000002B00F0A28000234FF0FF32CDE90523DB
:102750000AF1010A049307938DF853301A935446F3
:10276000052214F8011B5848FDF7D2FE049AD8B987
:10277000D10644BF20238DF85330130744BF2B23C9
:102780008DF853309AF800302A2B15D0079A54460A
:1027900000204FF00A0C214611F8013B303B092B79
:1027A0004ED9B0B1079214E0A0EB080309FA03F385
:1027B00013430493A246D2E7039B191D1B680391A0
:1027C000002BBBBF5B4242F0020207930793B8BFE6
:1027D000049223782E2B0CD163782A2B35D1039BBE
:1027E0001A1D1B680392002BB8BF4FF0FF33023451
:1027F0000593DFF8E4A0217803225046FDF788FE18
:1028000040B14023A0EB0A0003FA00F0049B03430D
:102810000134049314F8011B2C488DF8281006226B
:10282000FDF776FE00283FD0294B1BBB039B0733E7
:1028300023F0070308330393099B3B44099367E79D
:102840000CFB02320C460120A5E70023013405935E
:1028500019464FF00A0C204610F8012B303A092A8D
:1028600003D9002BC5D00591C3E70CFB0121044619
:102870000123F0E703AB00932A46164B04A9304628
:10288000AFF300800746781CD6D16B6ED90705D40C
:10289000AB899A0502D4A86DFFF708F9AB895B06EE
:1028A0003FF512AF099811E703AB00932A46094B95
:1028B00004A9304600F080F8E4E700BFC03100080A
:1028C000E0310008A0310008043200080E32000890
:1028D00000000000572600080A3200082DE9F047E2
:1028E000164699468A680B69DDF820809342B8BF86
:1028F0001346336091F8432007460C460AB1013372
:1029000033602368990642BF336802333360256819
:1029100015F0060506D104F1190AE36832689B1A1E
:10292000AB4226DC94F84320131E226818BF012313
:1029300092062BD404F1430249463846C047013081
:102940001ED02368E568326803F00603042B08BF35
:10295000AD1AA36822690CBF25EAE57500259342EC
:10296000C4BF9B1AED1800261A34B5421AD10020B4
:1029700008E00123524649463846C047013003D19A
:102980004FF0FF30BDE8F0870135C6E7E1185A1C6B
:10299000302081F84300224494F8451082F8431017
:1029A0000233C7E70123224649463846C047013073
:1029B000E6D00136D9E700002DE9FF470C469146E5
:1029C000277E0C99782F80469A4604F1430207D857
:1029D000622F0AD8002F00F0D880582F00F0A38073
:1029E00004F1420684F842703AE0A7F16303152B24
:1029F000F6D801A050F823F0512A0008652A0008F3
:102A0000E1290008E1290008E1290008E12900087E
:102A1000652A0008E1290008E1290008E1290008E9
:102A2000E1290008712B0008952A0008532B0008A3
:102A3000E1290008E1290008932B0008E12900089A
:102A4000952A0008E1290008E12900085B2B00080D
:102A50000B681A1D1B680A6004F1420684F84230B4
:102A60000123A3E0256808682E0600F104030AD5B7
:102A700005680B60002D03DA2D236D4284F8433086
:102A80005E480A2319E015F0400F05680B6018BF77
:102A90002DB2EFE70B682568181D0860280601D5E0
:102AA0001D6802E06906FBD51D8854486F2F0CBFD6
:102AB00008230A23002184F843106668A660002ECC
:102AC000A2BF216821F0040121600DB9002E4DD074
:102AD0001646B5FBF3F103FB1157C75D06F8017D00
:102AE0002F46BB420D46F4D9082B0BD12368DF07D4
:102AF00008D5236961689942DEBF302306F8013C9E
:102B000006F1FF36921B2261CDF800A04B4603AAC6
:102B100021464046FFF7E2FE01304CD14FF0FF3036
:102B200004B0BDE8F087354884F8457023680E6826
:102B30001F0656F8045B0E6014D5D90744BF43F056
:102B4000200323601DB9236823F020032360102392
:102B5000B0E7236843F0200323607823284884F8F3
:102B60004530E3E75E0648BFADB2E6E71646BBE791
:102B70000B68266860691D1D0D6035061B6801D550
:102B8000186002E07106FBD5188000232361164609
:102B9000BAE70B681A1D0A601E6862680021304699
:102BA000FDF7B6FC08B1801B6060636823610023F9
:102BB00084F84330A8E72369324649464046D04767
:102BC0000130ABD023689B0713D4E068039B984285
:102BD000B8BF1846A4E70123324649464046D047CD
:102BE00001309BD00135E36803995B1AAB42F2DCFC
:102BF000EBE7002504F11906F5E700BF15320008E0
:102C00002632000870B50D461446064618B1836991
:102C10000BB9FEF76BFE1C4B9C4224D17468636EAB
:102C2000D80705D4A389990502D4A06DFEF73DFF0E
:102C3000A368013B002BA36005DAA26993421CDB69
:102C4000EBB20A2B19D023685A1C22601D70EDB21A
:102C5000636EDA0705D4A3899B0502D4A06DFEF745
:102C600025FF284670BD094B9C4201D1B468D6E7C8
:102C7000074B9C4208BFF468D1E7294622463046FC
:102C8000FFF768FB0546E3E7C0310008E0310008C4
:102C9000A031000838B5074D044608461146002209
:102CA0002A601A46FDF712FD431C02D12B6803B1BE
:102CB000236038BDC011002038B5074D00230446FD
:102CC000084611462B60FEF700FC431C02D12B681E
:102CD00003B1236038BD00BFC011002038B5064DD8
:102CE0000023044608462B60FEF7FEFB431C02D17E
:102CF0002B6803B1236038BDC0110020F8B500BFB8
:102D0000F8BC08BC9E467047F8B500BFF8BC08BCCC
:042D10009E46704724
:102D14005265666572656E6365204C6F63617469A4
:102D24006F6E3A20307825580A0000003E3E20009D
:102D340064756D7000000000436F6D6D616E643AE0
:102D4400204D656D6F72792044756D700A4465730A
:102D54006372697074696F6E3A2044756D70732084
:102D6400612073656374696F6E206F66206D656D95
:102D74006F72792E0A53796E7461783A2064756D96
:102D840070203C616464726573733E203C6C656EB4
:102D94006774683E000000006164647265737300C8
:102DA40068656C70000000000A2048656C70204360
:102DB4006F6E746578743A0A20202D2064756D70E6
:102DC40020203C616464726573733E203C6C656EC4
:102DD4006774683E20092044756D70732061207308
:102DE400656374696F6E206F66206D656D6F7279AF
:102DF4002E0A20202D2068656C70200909092044C2
:102E04006973706C617973207468652068656C708F
:102E140020636F6E746578742E0A20202D207265ED
:102E2400616420203C616464726573733E20090907
:102E3400205265616473206120776F72642066722A
:102E44006F6D2061206C6F636174696F6E20696EB1
:102E5400206D656D6F72792E0A20202D207772699E
:102E64007465203C616464726573733E203C6461E4
:102E740074613E200920577269746573206120775C
:102E84006F726420746F2061206C6F636174696F6A
:102E94006E20696E206D656D6F72792E00000000E2
:102EA4007265616400000000436F6D6D616E643A89
:102EB400204D656D6F727920526561640A446573B3
:102EC4006372697074696F6E3A205265616473202D
:102ED4006120776F72642066726F6D2061206C6F61
:102EE400636174696F6E20696E206D656D6F7279B0
:102EF4002E0A53796E7461783A2072656164203CBD
:102F0400616464726573733E0000000077726974D3
:102F140065000000436F6D6D616E643A204D656D10
:102F24006F72792057726974650A446573637269B4
:102F34007074696F6E3A20577269746573206120EA
:102F4400776F726420746F2061206C6F63617469A1
:102F54006F6E20696E206D656D6F72792E0A5379DC
:102F64006E7461783A207772697465203C61646498
:102F7400726573733E203C646174613E000000001E
:102F840064617461000000002725732720697320A1
:102F94006E6F74207265636F676E697A6564206111
:102FA40073206120636F6D6D616E642E0A000000F2
:102FB400436F6D6D616E64206D697373696E672014
:102FC400706172616D6574657220272573272E0AFE
:102FD40000000000416E20756E6B6E6F776E206589
:102FE40072726F7220686173206F636375727265A9
:102FF400642E00000A44756D70696E672025642094
:103004006279746573206F66206D656D6F727920C7
:1030140066726F6D2030782530385820746F2030F8
:1030240078253038582E0A000A0909093030203032
:10303400312030322030330909303420303520300B
:1030440036203037090930382030392030412030DB
:1030540042090930432030442030452030460A00DC
:1030640030782530385800002530325820000000D0
:103074004144523A203078253038580A0000000084
:103084004445433A2025640A000000004845583A64
:10309400203078253038580A0000202020202020B5
:1030A40020202028282828282020202020202020F4
:1030B40020202020202020202020881010101010F4
:1030C4001010101010101010101004040404040444
:1030D4000404040410101010101010414141414127
:1030E400410101010101010101010101010101018C
:1030F400010101010110101010101042424242421D
:10310400420202020202020202020202020202025B
:103114000202020202101010102000000000000041
:10312400000000000000000000000000000000009B
:10313400000000000000000000000000000000008B
:10314400000000000000000000000000000000007B
:10315400000000000000000000000000000000006B
:10316400000000000000000000000000000000005B
:10317400000000000000000000000000000000004B
:10318400000000000000000000000000000000003B
:10319400000000000000000000000000000000002B
:1031A400000000000000000000000000000000001B
:1031B400000000000000000000000000000000000B
:1031C40000000000000000000000000000000000FB
:1031D40000000000000000000000000000000000EB
:1031E40000000000000000000000000000000000DB
:1031F40000000000000000000000000008000020A3
:10320400232D302B2000686C4C00656667454647CB
:10321400003031323334353637383941424344454E
:1032240046003031323334353637383961626364BD
:0432340065660000CB
:0832380008D0FF7F0100000037
:04324000F50100088C
:04324400D1010008AC
:10324800010000000800002000000000C031000854
:10325800E0310008A0310008000000000000000074
:103268000000000000000000000000000000000056
:103278000000000000000000000000000000000046
:103288000000000000000000000000000000000036
:103298000000000000000000000000000000000026
:0832A80000000000000000001E
:040000050800152DAD
:00000001FF
